{
  "contractName": "CryptoToken",
  "abi": [
    {
      "inputs": [
        {
          "internalType": "address",
          "name": "_taxedToken",
          "type": "address"
        },
        {
          "internalType": "address",
          "name": "_uniswapV2Router",
          "type": "address"
        }
      ],
      "stateMutability": "nonpayable",
      "type": "constructor"
    },
    {
      "anonymous": false,
      "inputs": [
        {
          "indexed": true,
          "internalType": "address",
          "name": "previousOwner",
          "type": "address"
        },
        {
          "indexed": true,
          "internalType": "address",
          "name": "newOwner",
          "type": "address"
        }
      ],
      "name": "OwnershipTransferred",
      "type": "event"
    },
    {
      "inputs": [],
      "name": "owner",
      "outputs": [
        {
          "internalType": "address",
          "name": "",
          "type": "address"
        }
      ],
      "stateMutability": "view",
      "type": "function"
    },
    {
      "inputs": [],
      "name": "renounceOwnership",
      "outputs": [],
      "stateMutability": "nonpayable",
      "type": "function"
    },
    {
      "inputs": [],
      "name": "taxPercentage",
      "outputs": [
        {
          "internalType": "uint256",
          "name": "",
          "type": "uint256"
        }
      ],
      "stateMutability": "view",
      "type": "function"
    },
    {
      "inputs": [],
      "name": "taxedToken",
      "outputs": [
        {
          "internalType": "address",
          "name": "",
          "type": "address"
        }
      ],
      "stateMutability": "view",
      "type": "function"
    },
    {
      "inputs": [
        {
          "internalType": "address",
          "name": "newOwner",
          "type": "address"
        }
      ],
      "name": "transferOwnership",
      "outputs": [],
      "stateMutability": "nonpayable",
      "type": "function"
    },
    {
      "inputs": [],
      "name": "uniswapV2Pair",
      "outputs": [
        {
          "internalType": "address",
          "name": "",
          "type": "address"
        }
      ],
      "stateMutability": "view",
      "type": "function"
    },
    {
      "inputs": [],
      "name": "uniswapV2Router",
      "outputs": [
        {
          "internalType": "contract IUniswapV2Router02",
          "name": "",
          "type": "address"
        }
      ],
      "stateMutability": "view",
      "type": "function"
    },
    {
      "inputs": [
        {
          "internalType": "uint256",
          "name": "tokenAmount",
          "type": "uint256"
        }
      ],
      "name": "swapTokensForETH",
      "outputs": [],
      "stateMutability": "nonpayable",
      "type": "function"
    },
    {
      "inputs": [
        {
          "internalType": "address",
          "name": "to",
          "type": "address"
        },
        {
          "internalType": "uint256",
          "name": "amount",
          "type": "uint256"
        }
      ],
      "name": "withdraw",
      "outputs": [],
      "stateMutability": "nonpayable",
      "type": "function"
    }
  ],
  "bytecode": "0x6080604052600a6004553480156200001657600080fd5b5060405162000eec38038062000eec83398101604081905262000039916200025c565b6200004433620001ef565b600180546001600160a01b038085166001600160a01b0319928316179092556002805492841692909116821790556040805163c45a015560e01b8152905163c45a0155916004808201926020929091908290030181865afa158015620000ae573d6000803e3d6000fd5b505050506040513d601f19601f82011682018060405250810190620000d4919062000294565b600154600254604080516315ab88c960e31b815290516001600160a01b039485169463c9c6539694811693169163ad5c46489160048083019260209291908290030181865afa1580156200012c573d6000803e3d6000fd5b505050506040513d601f19601f8201168201806040525081019062000152919062000294565b6040516001600160e01b031960e085901b1681526001600160a01b039283166004820152911660248201526044016020604051808303816000875af1158015620001a0573d6000803e3d6000fd5b505050506040513d601f19601f82011682018060405250810190620001c6919062000294565b600380546001600160a01b0319166001600160a01b039290921691909117905550620002b99050565b600080546001600160a01b038381166001600160a01b0319831681178455604051919092169283917f8be0079c531659141344cd1fd0a4f28419497f9722a3daafe3b4186f6b6457e09190a35050565b80516001600160a01b03811681146200025757600080fd5b919050565b600080604083850312156200027057600080fd5b6200027b836200023f565b91506200028b602084016200023f565b90509250929050565b600060208284031215620002a757600080fd5b620002b2826200023f565b9392505050565b610c2380620002c96000396000f3fe608060405234801561001057600080fd5b50600436106100935760003560e01c80638da5cb5b116100665780638da5cb5b146100f8578063ae7b6d1614610109578063e56a645e14610120578063f2fde38b14610133578063f3fef3a31461014657600080fd5b80631694505e146100985780633daea118146100c857806349bd5a5e146100db578063715018a6146100ee575b600080fd5b6002546100ab906001600160a01b031681565b6040516001600160a01b0390911681526020015b60405180910390f35b6001546100ab906001600160a01b031681565b6003546100ab906001600160a01b031681565b6100f6610159565b005b6000546001600160a01b03166100ab565b61011260045481565b6040519081526020016100bf565b6100f661012e3660046109b5565b61016d565b6100f66101413660046109e3565b6103d6565b6100f6610154366004610a07565b61044f565b61016161052c565b61016b6000610586565b565b61017561052c565b6001546040516370a0823160e01b815230600482015282916001600160a01b0316906370a0823190602401602060405180830381865afa1580156101bd573d6000803e3d6000fd5b505050506040513d601f19601f820116820180604052508101906101e19190610a33565b10156102345760405162461bcd60e51b815260206004820152601a60248201527f496e73756666696369656e7420746f6b656e2062616c616e636500000000000060448201526064015b60405180910390fd5b60006064600454836102469190610a62565b6102509190610a7f565b600254909150610280906001600160a01b031661026d8385610aa1565b6001546001600160a01b031691906105d6565b604080516002808252606082018352600092602083019080368337505060015482519293506001600160a01b0316918391506000906102c1576102c1610ab4565b6001600160a01b03928316602091820292909201810191909152600254604080516315ab88c960e31b81529051919093169263ad5c46489260048083019391928290030181865afa15801561031a573d6000803e3d6000fd5b505050506040513d601f19601f8201168201806040525081019061033e9190610aca565b8160018151811061035157610351610ab4565b6001600160a01b0392831660209182029290920101526002541663791ac94761037a8486610aa1565b60008430426040518663ffffffff1660e01b815260040161039f959493929190610ae7565b600060405180830381600087803b1580156103b957600080fd5b505af11580156103cd573d6000803e3d6000fd5b50505050505050565b6103de61052c565b6001600160a01b0381166104435760405162461bcd60e51b815260206004820152602660248201527f4f776e61626c653a206e6577206f776e657220697320746865207a65726f206160448201526564647265737360d01b606482015260840161022b565b61044c81610586565b50565b61045761052c565b6001546040516370a0823160e01b815230600482015282916001600160a01b0316906370a0823190602401602060405180830381865afa15801561049f573d6000803e3d6000fd5b505050506040513d601f19601f820116820180604052508101906104c39190610a33565b10156105115760405162461bcd60e51b815260206004820152601a60248201527f496e73756666696369656e7420746f6b656e2062616c616e6365000000000000604482015260640161022b565b600154610528906001600160a01b03168383610723565b5050565b6000546001600160a01b0316331461016b5760405162461bcd60e51b815260206004820181905260248201527f4f776e61626c653a2063616c6c6572206973206e6f7420746865206f776e6572604482015260640161022b565b600080546001600160a01b038381166001600160a01b0319831681178455604051919092169283917f8be0079c531659141344cd1fd0a4f28419497f9722a3daafe3b4186f6b6457e09190a35050565b8015806106505750604051636eb1769f60e11b81523060048201526001600160a01b03838116602483015284169063dd62ed3e90604401602060405180830381865afa15801561062a573d6000803e3d6000fd5b505050506040513d601f19601f8201168201806040525081019061064e9190610a33565b155b6106bb5760405162461bcd60e51b815260206004820152603660248201527f5361666545524332303a20617070726f76652066726f6d206e6f6e2d7a65726f60448201527520746f206e6f6e2d7a65726f20616c6c6f77616e636560501b606482015260840161022b565b6040516001600160a01b03831660248201526044810182905261071e90849063095ea7b360e01b906064015b60408051601f198184030181529190526020810180516001600160e01b03166001600160e01b031990931692909217909152610753565b505050565b6040516001600160a01b03831660248201526044810182905261071e90849063a9059cbb60e01b906064016106e7565b60006107a8826040518060400160405280602081526020017f5361666545524332303a206c6f772d6c6576656c2063616c6c206661696c6564815250856001600160a01b03166108259092919063ffffffff16565b80519091501561071e57808060200190518101906107c69190610b58565b61071e5760405162461bcd60e51b815260206004820152602a60248201527f5361666545524332303a204552433230206f7065726174696f6e20646964206e6044820152691bdd081cdd58d8d9595960b21b606482015260840161022b565b6060610834848460008561083c565b949350505050565b60608247101561089d5760405162461bcd60e51b815260206004820152602660248201527f416464726573733a20696e73756666696369656e742062616c616e636520666f6044820152651c8818d85b1b60d21b606482015260840161022b565b600080866001600160a01b031685876040516108b99190610b9e565b60006040518083038185875af1925050503d80600081146108f6576040519150601f19603f3d011682016040523d82523d6000602084013e6108fb565b606091505b509150915061090c87838387610917565b979650505050505050565b6060831561098657825160000361097f576001600160a01b0385163b61097f5760405162461bcd60e51b815260206004820152601d60248201527f416464726573733a2063616c6c20746f206e6f6e2d636f6e7472616374000000604482015260640161022b565b5081610834565b610834838381511561099b5781518083602001fd5b8060405162461bcd60e51b815260040161022b9190610bba565b6000602082840312156109c757600080fd5b5035919050565b6001600160a01b038116811461044c57600080fd5b6000602082840312156109f557600080fd5b8135610a00816109ce565b9392505050565b60008060408385031215610a1a57600080fd5b8235610a25816109ce565b946020939093013593505050565b600060208284031215610a4557600080fd5b5051919050565b634e487b7160e01b600052601160045260246000fd5b8082028115828204841417610a7957610a79610a4c565b92915050565b600082610a9c57634e487b7160e01b600052601260045260246000fd5b500490565b81810381811115610a7957610a79610a4c565b634e487b7160e01b600052603260045260246000fd5b600060208284031215610adc57600080fd5b8151610a00816109ce565b600060a082018783526020878185015260a0604085015281875180845260c086019150828901935060005b81811015610b375784516001600160a01b031683529383019391830191600101610b12565b50506001600160a01b03969096166060850152505050608001529392505050565b600060208284031215610b6a57600080fd5b81518015158114610a0057600080fd5b60005b83811015610b95578181015183820152602001610b7d565b50506000910152565b60008251610bb0818460208701610b7a565b9190910192915050565b6020815260008251806020840152610bd9816040850160208701610b7a565b601f01601f1916919091016040019291505056fea2646970667358221220b8d16bf775a3808e17535398e559f6c20413144ae10eaf4a7a8904d6baa1ee0764736f6c63430008130033",
  "immutableReferences": {},
  "source": "// SPDX-License-Identifier: MIT\r\n\r\npragma solidity ^0.8.19;\r\n\r\nimport \"../node_modules/@uniswap/v2-core/contracts/interfaces/IUniswapV2Factory.sol\";\r\nimport \"../node_modules/@uniswap/v2-core/contracts/interfaces/IUniswapV2Pair.sol\";\r\nimport \"../node_modules/@uniswap/v2-periphery/contracts/interfaces/IUniswapV2Router02.sol\";\r\nimport \"../node_modules/@openzeppelin/contracts/token/ERC20/IERC20.sol\";\r\nimport \"../node_modules/@openzeppelin/contracts/token/ERC20/utils/SafeERC20.sol\";\r\nimport \"../node_modules/@openzeppelin/contracts/access/Ownable.sol\";\r\n\r\ncontract CryptoToken is Ownable {\r\n    using SafeERC20 for IERC20;\r\n\r\n    address public taxedToken;\r\n    IUniswapV2Router02 public uniswapV2Router;\r\n    address public uniswapV2Pair;\r\n    uint256 public taxPercentage = 10;\r\n\r\n    constructor(address _taxedToken, address _uniswapV2Router) {\r\n        taxedToken = _taxedToken;\r\n        uniswapV2Router = IUniswapV2Router02(_uniswapV2Router);\r\n\r\n        // Create a Uniswap V2 pair for the taxed token\r\n        uniswapV2Pair = IUniswapV2Factory(uniswapV2Router.factory())\r\n            .createPair(taxedToken, uniswapV2Router.WETH());\r\n    }\r\n    function swapTokensForETH(uint256 tokenAmount) public onlyOwner {\r\n    require(IERC20(taxedToken).balanceOf(address(this)) >= tokenAmount, \"Insufficient token balance\");\r\n\r\n    // Calculate tax\r\n    uint256 taxAmount = (tokenAmount * taxPercentage) / 100;\r\n\r\n    // Approve token transfer to the router\r\n    IERC20(taxedToken).safeApprove(address(uniswapV2Router), tokenAmount - taxAmount);\r\n\r\n    // Perform the swap\r\n    address[] memory path = new address[](2);\r\n    path[0] = taxedToken;\r\n    path[1] = uniswapV2Router.WETH();\r\n\r\n    uniswapV2Router.swapExactTokensForETHSupportingFeeOnTransferTokens(\r\n        tokenAmount - taxAmount,\r\n        0, // Accept any amount of ETH\r\n        path,\r\n        address(this),\r\n        block.timestamp\r\n    );\r\n}\r\nfunction withdraw(address to, uint256 amount) public onlyOwner {\r\n    require(IERC20(taxedToken).balanceOf(address(this)) >= amount, \"Insufficient token balance\");\r\n    IERC20(taxedToken).safeTransfer(to, amount);\r\n}\r\n\r\n}\r\n",
  "sourcePath": "C:\\Users\\robin\\contracts\\CryptoProject\\contracts\\CryptoToken.sol",
  "compiler": {
    "name": "solc",
    "version": "0.8.19+commit.7dd6d404.Emscripten.clang"
  },
  "schemaVersion": "3.4.13",
  "updatedAt": "2023-04-20T12:44:17.359Z",
  "devdoc": {
    "kind": "dev",
    "methods": {
      "owner()": {
        "details": "Returns the address of the current owner."
      },
      "renounceOwnership()": {
        "details": "Leaves the contract without owner. It will not be possible to call `onlyOwner` functions anymore. Can only be called by the current owner. NOTE: Renouncing ownership will leave the contract without an owner, thereby removing any functionality that is only available to the owner."
      },
      "transferOwnership(address)": {
        "details": "Transfers ownership of the contract to a new account (`newOwner`). Can only be called by the current owner."
      }
    },
    "version": 1
  },
  "userdoc": {
    "kind": "user",
    "methods": {},
    "version": 1
  }
}